{
  "contractName": "Elections",
  "abi": [
    {
      "inputs": [],
      "payable": false,
      "stateMutability": "nonpayable",
      "type": "constructor"
    },
    {
      "constant": false,
      "inputs": [
        {
          "internalType": "string",
          "name": "fullName",
          "type": "string"
        },
        {
          "internalType": "string",
          "name": "birthDate",
          "type": "string"
        },
        {
          "internalType": "string",
          "name": "politicalParty",
          "type": "string"
        },
        {
          "internalType": "string",
          "name": "position",
          "type": "string"
        },
        {
          "internalType": "string",
          "name": "state",
          "type": "string"
        },
        {
          "internalType": "string",
          "name": "city",
          "type": "string"
        },
        {
          "internalType": "string",
          "name": "electoralNumber",
          "type": "string"
        }
      ],
      "name": "addCandidate",
      "outputs": [],
      "payable": false,
      "stateMutability": "nonpayable",
      "type": "function"
    },
    {
      "constant": true,
      "inputs": [
        {
          "internalType": "string",
          "name": "number",
          "type": "string"
        }
      ],
      "name": "getCandidate",
      "outputs": [
        {
          "internalType": "string",
          "name": "fullName",
          "type": "string"
        },
        {
          "internalType": "string",
          "name": "birthDate",
          "type": "string"
        },
        {
          "internalType": "string",
          "name": "politicalParty",
          "type": "string"
        },
        {
          "internalType": "string",
          "name": "position",
          "type": "string"
        },
        {
          "internalType": "string",
          "name": "state",
          "type": "string"
        },
        {
          "internalType": "string",
          "name": "city",
          "type": "string"
        },
        {
          "internalType": "string",
          "name": "electoralNumber",
          "type": "string"
        }
      ],
      "payable": false,
      "stateMutability": "view",
      "type": "function"
    },
    {
      "constant": false,
      "inputs": [
        {
          "internalType": "string",
          "name": "cityName",
          "type": "string"
        }
      ],
      "name": "addCity",
      "outputs": [],
      "payable": false,
      "stateMutability": "nonpayable",
      "type": "function"
    },
    {
      "constant": true,
      "inputs": [
        {
          "internalType": "string",
          "name": "cityName",
          "type": "string"
        }
      ],
      "name": "getCity",
      "outputs": [
        {
          "internalType": "string",
          "name": "name",
          "type": "string"
        }
      ],
      "payable": false,
      "stateMutability": "view",
      "type": "function"
    },
    {
      "constant": false,
      "inputs": [
        {
          "internalType": "string",
          "name": "electoralNumber",
          "type": "string"
        },
        {
          "internalType": "string",
          "name": "fullName",
          "type": "string"
        }
      ],
      "name": "addElectoralTitle",
      "outputs": [],
      "payable": false,
      "stateMutability": "nonpayable",
      "type": "function"
    },
    {
      "constant": true,
      "inputs": [
        {
          "internalType": "string",
          "name": "number",
          "type": "string"
        }
      ],
      "name": "getElectoralTitle",
      "outputs": [
        {
          "internalType": "string",
          "name": "electoralNumber",
          "type": "string"
        },
        {
          "internalType": "string",
          "name": "fullName",
          "type": "string"
        }
      ],
      "payable": false,
      "stateMutability": "view",
      "type": "function"
    },
    {
      "constant": false,
      "inputs": [
        {
          "internalType": "string",
          "name": "name",
          "type": "string"
        }
      ],
      "name": "addPoliticalParty",
      "outputs": [],
      "payable": false,
      "stateMutability": "nonpayable",
      "type": "function"
    },
    {
      "constant": true,
      "inputs": [
        {
          "internalType": "string",
          "name": "politicalPartyName",
          "type": "string"
        }
      ],
      "name": "getPoliticalParty",
      "outputs": [
        {
          "internalType": "string",
          "name": "name",
          "type": "string"
        }
      ],
      "payable": false,
      "stateMutability": "view",
      "type": "function"
    },
    {
      "constant": false,
      "inputs": [
        {
          "internalType": "string",
          "name": "position",
          "type": "string"
        }
      ],
      "name": "addPosition",
      "outputs": [],
      "payable": false,
      "stateMutability": "nonpayable",
      "type": "function"
    },
    {
      "constant": true,
      "inputs": [
        {
          "internalType": "string",
          "name": "positionName",
          "type": "string"
        }
      ],
      "name": "getPosition",
      "outputs": [
        {
          "internalType": "string",
          "name": "name",
          "type": "string"
        }
      ],
      "payable": false,
      "stateMutability": "view",
      "type": "function"
    },
    {
      "constant": false,
      "inputs": [
        {
          "internalType": "string",
          "name": "stateName",
          "type": "string"
        }
      ],
      "name": "addState",
      "outputs": [],
      "payable": false,
      "stateMutability": "nonpayable",
      "type": "function"
    },
    {
      "constant": true,
      "inputs": [
        {
          "internalType": "string",
          "name": "stateName",
          "type": "string"
        }
      ],
      "name": "getState",
      "outputs": [
        {
          "internalType": "string",
          "name": "name",
          "type": "string"
        }
      ],
      "payable": false,
      "stateMutability": "view",
      "type": "function"
    }
  ],
  "bytecode": "0x608060405234801561001057600080fd5b50336000806101000a81548173ffffffffffffffffffffffffffffffffffffffff021916908373ffffffffffffffffffffffffffffffffffffffff160217905550613471806100606000396000f3fe608060405234801561001057600080fd5b50600436106100b45760003560e01c8063ecd1ddc111610071578063ecd1ddc1146107e4578063f025b8fa14610936578063f276669d146109f1578063f6fb060614610dad578063fae9c484146111f2578063fb9b4cba146112ad576100b4565b80630650e971146100b957806310fb6fc1146101ed5780632a34ede114610321578063c35b1d67146103dc578063c3c1b57d1461057c578063e33f77ca146106b0575b600080fd5b610172600480360360208110156100cf57600080fd5b81019080803590602001906401000000008111156100ec57600080fd5b8201836020820111156100fe57600080fd5b8035906020019184600183028401116401000000008311171561012057600080fd5b91908080601f016020809104026020016040519081016040528093929190818152602001838380828437600081840152601f19601f820116905080830192505050505050509192919290505050611368565b6040518080602001828103825283818151815260200191508051906020019080838360005b838110156101b2578082015181840152602081019050610197565b50505050905090810190601f1680156101df5780820380516001836020036101000a031916815260200191505b509250505060405180910390f35b6102a66004803603602081101561020357600080fd5b810190808035906020019064010000000081111561022057600080fd5b82018360208201111561023257600080fd5b8035906020019184600183028401116401000000008311171561025457600080fd5b91908080601f016020809104026020016040519081016040528093929190818152602001838380828437600081840152601f19601f820116905080830192505050505050509192919290505050611529565b6040518080602001828103825283818151815260200191508051906020019080838360005b838110156102e65780820151818401526020810190506102cb565b50505050905090810190601f1680156103135780820380516001836020036101000a031916815260200191505b509250505060405180910390f35b6103da6004803603602081101561033757600080fd5b810190808035906020019064010000000081111561035457600080fd5b82018360208201111561036657600080fd5b8035906020019184600183028401116401000000008311171561038857600080fd5b91908080601f016020809104026020016040519081016040528093929190818152602001838380828437600081840152601f19601f8201169050808301925050505050505091929192905050506116ea565b005b610495600480360360208110156103f257600080fd5b810190808035906020019064010000000081111561040f57600080fd5b82018360208201111561042157600080fd5b8035906020019184600183028401116401000000008311171561044357600080fd5b91908080601f016020809104026020016040519081016040528093929190818152602001838380828437600081840152601f19601f820116905080830192505050505050509192919290505050611940565b604051808060200180602001838103835285818151815260200191508051906020019080838360005b838110156104d95780820151818401526020810190506104be565b50505050905090810190601f1680156105065780820380516001836020036101000a031916815260200191505b50838103825284818151815260200191508051906020019080838360005b8381101561053f578082015181840152602081019050610524565b50505050905090810190601f16801561056c5780820380516001836020036101000a031916815260200191505b5094505050505060405180910390f35b6106356004803603602081101561059257600080fd5b81019080803590602001906401000000008111156105af57600080fd5b8201836020820111156105c157600080fd5b803590602001918460018302840111640100000000831117156105e357600080fd5b91908080601f016020809104026020016040519081016040528093929190818152602001838380828437600081840152601f19601f820116905080830192505050505050509192919290505050611bb1565b6040518080602001828103825283818151815260200191508051906020019080838360005b8381101561067557808201518184015260208101905061065a565b50505050905090810190601f1680156106a25780820380516001836020036101000a031916815260200191505b509250505060405180910390f35b610769600480360360208110156106c657600080fd5b81019080803590602001906401000000008111156106e357600080fd5b8201836020820111156106f557600080fd5b8035906020019184600183028401116401000000008311171561071757600080fd5b91908080601f016020809104026020016040519081016040528093929190818152602001838380828437600081840152601f19601f820116905080830192505050505050509192919290505050611d72565b6040518080602001828103825283818151815260200191508051906020019080838360005b838110156107a957808201518184015260208101905061078e565b50505050905090810190601f1680156107d65780820380516001836020036101000a031916815260200191505b509250505060405180910390f35b610934600480360360408110156107fa57600080fd5b810190808035906020019064010000000081111561081757600080fd5b82018360208201111561082957600080fd5b8035906020019184600183028401116401000000008311171561084b57600080fd5b91908080601f016020809104026020016040519081016040528093929190818152602001838380828437600081840152601f19601f820116905080830192505050505050509192919290803590602001906401000000008111156108ae57600080fd5b8201836020820111156108c057600080fd5b803590602001918460018302840111640100000000831117156108e257600080fd5b91908080601f016020809104026020016040519081016040528093929190818152602001838380828437600081840152601f19601f820116905080830192505050505050509192919290505050611f33565b005b6109ef6004803603602081101561094c57600080fd5b810190808035906020019064010000000081111561096957600080fd5b82018360208201111561097b57600080fd5b8035906020019184600183028401116401000000008311171561099d57600080fd5b91908080601f016020809104026020016040519081016040528093929190818152602001838380828437600081840152601f19601f8201169050808301925050505050505091929192905050506121ad565b005b610aaa60048036036020811015610a0757600080fd5b8101908080359060200190640100000000811115610a2457600080fd5b820183602082011115610a3657600080fd5b80359060200191846001830284011164010000000083111715610a5857600080fd5b91908080601f016020809104026020016040519081016040528093929190818152602001838380828437600081840152601f19601f820116905080830192505050505050509192919290505050612403565b604051808060200180602001806020018060200180602001806020018060200188810388528f818151815260200191508051906020019080838360005b83811015610b02578082015181840152602081019050610ae7565b50505050905090810190601f168015610b2f5780820380516001836020036101000a031916815260200191505b5088810387528e818151815260200191508051906020019080838360005b83811015610b68578082015181840152602081019050610b4d565b50505050905090810190601f168015610b955780820380516001836020036101000a031916815260200191505b5088810386528d818151815260200191508051906020019080838360005b83811015610bce578082015181840152602081019050610bb3565b50505050905090810190601f168015610bfb5780820380516001836020036101000a031916815260200191505b5088810385528c818151815260200191508051906020019080838360005b83811015610c34578082015181840152602081019050610c19565b50505050905090810190601f168015610c615780820380516001836020036101000a031916815260200191505b5088810384528b818151815260200191508051906020019080838360005b83811015610c9a578082015181840152602081019050610c7f565b50505050905090810190601f168015610cc75780820380516001836020036101000a031916815260200191505b5088810383528a818151815260200191508051906020019080838360005b83811015610d00578082015181840152602081019050610ce5565b50505050905090810190601f168015610d2d5780820380516001836020036101000a031916815260200191505b50888103825289818151815260200191508051906020019080838360005b83811015610d66578082015181840152602081019050610d4b565b50505050905090810190601f168015610d935780820380516001836020036101000a031916815260200191505b509e50505050505050505050505050505060405180910390f35b6111f0600480360360e0811015610dc357600080fd5b8101908080359060200190640100000000811115610de057600080fd5b820183602082011115610df257600080fd5b80359060200191846001830284011164010000000083111715610e1457600080fd5b91908080601f016020809104026020016040519081016040528093929190818152602001838380828437600081840152601f19601f82011690508083019250505050505050919291929080359060200190640100000000811115610e7757600080fd5b820183602082011115610e8957600080fd5b80359060200191846001830284011164010000000083111715610eab57600080fd5b91908080601f016020809104026020016040519081016040528093929190818152602001838380828437600081840152601f19601f82011690508083019250505050505050919291929080359060200190640100000000811115610f0e57600080fd5b820183602082011115610f2057600080fd5b80359060200191846001830284011164010000000083111715610f4257600080fd5b91908080601f016020809104026020016040519081016040528093929190818152602001838380828437600081840152601f19601f82011690508083019250505050505050919291929080359060200190640100000000811115610fa557600080fd5b820183602082011115610fb757600080fd5b80359060200191846001830284011164010000000083111715610fd957600080fd5b91908080601f016020809104026020016040519081016040528093929190818152602001838380828437600081840152601f19601f8201169050808301925050505050505091929192908035906020019064010000000081111561103c57600080fd5b82018360208201111561104e57600080fd5b8035906020019184600183028401116401000000008311171561107057600080fd5b91908080601f016020809104026020016040519081016040528093929190818152602001838380828437600081840152601f19601f820116905080830192505050505050509192919290803590602001906401000000008111156110d357600080fd5b8201836020820111156110e557600080fd5b8035906020019184600183028401116401000000008311171561110757600080fd5b91908080601f016020809104026020016040519081016040528093929190818152602001838380828437600081840152601f19601f8201169050808301925050505050505091929192908035906020019064010000000081111561116a57600080fd5b82018360208201111561117c57600080fd5b8035906020019184600183028401116401000000008311171561119e57600080fd5b91908080601f016020809104026020016040519081016040528093929190818152602001838380828437600081840152601f19601f8201169050808301925050505050505091929192905050506129df565b005b6112ab6004803603602081101561120857600080fd5b810190808035906020019064010000000081111561122557600080fd5b82018360208201111561123757600080fd5b8035906020019184600183028401116401000000008311171561125957600080fd5b91908080601f016020809104026020016040519081016040528093929190818152602001838380828437600081840152601f19601f820116905080830192505050505050509192919290505050612d19565b005b611366600480360360208110156112c357600080fd5b81019080803590602001906401000000008111156112e057600080fd5b8201836020820111156112f257600080fd5b8035906020019184600183028401116401000000008311171561131457600080fd5b91908080601f016020809104026020016040519081016040528093929190818152602001838380828437600081840152601f19601f820116905080830192505050505050509192919290505050612f52565b005b606061137261324e565b6002836040518082805190602001908083835b602083106113a85780518252602082019150602081019050602083039250611385565b6001836020036101000a0380198251168184511680821785525050505050509050019150509081526020016040518091039020604051806040016040529081600082018054600181600116156101000203166002900480601f01602080910402602001604051908101604052809291908181526020018280546001816001161561010002031660029004801561147f5780601f106114545761010080835404028352916020019161147f565b820191906000526020600020905b81548152906001019060200180831161146257829003601f168201915b505050505081526020016001820160009054906101000a900460ff1615151515815250509050806020015161151c576040517f08c379a000000000000000000000000000000000000000000000000000000000815260040180806020018281038252600e8152602001807f43697479206e6f7420666f756e6400000000000000000000000000000000000081525060200191505060405180910390fd5b8060000151915050919050565b606061153361326a565b6005836040518082805190602001908083835b602083106115695780518252602082019150602081019050602083039250611546565b6001836020036101000a0380198251168184511680821785525050505050509050019150509081526020016040518091039020604051806040016040529081600082018054600181600116156101000203166002900480601f0160208091040260200160405190810160405280929190818152602001828054600181600116156101000203166002900480156116405780601f1061161557610100808354040283529160200191611640565b820191906000526020600020905b81548152906001019060200180831161162357829003601f168201915b505050505081526020016001820160009054906101000a900460ff161515151581525050905080602001516116dd576040517f08c379a00000000000000000000000000000000000000000000000000000000081526004018080602001828103825260128152602001807f506f736974696f6e206e6f7420666f756e64000000000000000000000000000081525060200191505060405180910390fd5b8060000151915050919050565b3373ffffffffffffffffffffffffffffffffffffffff166000809054906101000a900473ffffffffffffffffffffffffffffffffffffffff1673ffffffffffffffffffffffffffffffffffffffff161461178f576040517f08c379a000000000000000000000000000000000000000000000000000000000815260040180806020018281038252602a8152602001806133f1602a913960400191505060405180910390fd5b6006816040518082805190602001908083835b602083106117c557805182526020820191506020810190506020830392506117a2565b6001836020036101000a038019825116818451168082178552505050505050905001915050908152602001604051809103902060010160009054906101000a900460ff161561187c576040517f08c379a000000000000000000000000000000000000000000000000000000000815260040180806020018281038252601d8152602001807f546865207374617465206e616d65206d75737420626520756e6971756500000081525060200191505060405180910390fd5b6040518060400160405280828152602001600115158152506006826040518082805190602001908083835b602083106118ca57805182526020820191506020810190506020830392506118a7565b6001836020036101000a03801982511681845116808217855250505050505090500191505090815260200160405180910390206000820151816000019080519060200190611919929190613286565b5060208201518160010160006101000a81548160ff02191690831515021790555090505050565b60608061194b613306565b6003846040518082805190602001908083835b60208310611981578051825260208201915060208101905060208303925061195e565b6001836020036101000a0380198251168184511680821785525050505050509050019150509081526020016040518091039020604051806060016040529081600082018054600181600116156101000203166002900480601f016020809104026020016040519081016040528092919081815260200182805460018160011615610100020316600290048015611a585780601f10611a2d57610100808354040283529160200191611a58565b820191906000526020600020905b815481529060010190602001808311611a3b57829003601f168201915b50505050508152602001600182018054600181600116156101000203166002900480601f016020809104026020016040519081016040528092919081815260200182805460018160011615610100020316600290048015611afa5780601f10611acf57610100808354040283529160200191611afa565b820191906000526020600020905b815481529060010190602001808311611add57829003601f168201915b505050505081526020016002820160009054906101000a900460ff16151515158152505090508060400151611b97576040517f08c379a00000000000000000000000000000000000000000000000000000000081526004018080602001828103825260198152602001807f456c6563746f72616c207469746c65206e6f7420666f756e640000000000000081525060200191505060405180910390fd5b806000015181602001518191508090509250925050915091565b6060611bbb613329565b6004836040518082805190602001908083835b60208310611bf15780518252602082019150602081019050602083039250611bce565b6001836020036101000a0380198251168184511680821785525050505050509050019150509081526020016040518091039020604051806040016040529081600082018054600181600116156101000203166002900480601f016020809104026020016040519081016040528092919081815260200182805460018160011615610100020316600290048015611cc85780601f10611c9d57610100808354040283529160200191611cc8565b820191906000526020600020905b815481529060010190602001808311611cab57829003601f168201915b505050505081526020016001820160009054906101000a900460ff16151515158152505090508060200151611d65576040517f08c379a00000000000000000000000000000000000000000000000000000000081526004018080602001828103825260198152602001807f506f6c69746963616c207061727479206e6f7420666f756e640000000000000081525060200191505060405180910390fd5b8060000151915050919050565b6060611d7c613345565b6006836040518082805190602001908083835b60208310611db25780518252602082019150602081019050602083039250611d8f565b6001836020036101000a0380198251168184511680821785525050505050509050019150509081526020016040518091039020604051806040016040529081600082018054600181600116156101000203166002900480601f016020809104026020016040519081016040528092919081815260200182805460018160011615610100020316600290048015611e895780601f10611e5e57610100808354040283529160200191611e89565b820191906000526020600020905b815481529060010190602001808311611e6c57829003601f168201915b505050505081526020016001820160009054906101000a900460ff16151515158152505090508060200151611f26576040517f08c379a000000000000000000000000000000000000000000000000000000000815260040180806020018281038252600f8152602001807f5374617465206e6f7420666f756e64000000000000000000000000000000000081525060200191505060405180910390fd5b8060000151915050919050565b3373ffffffffffffffffffffffffffffffffffffffff166000809054906101000a900473ffffffffffffffffffffffffffffffffffffffff1673ffffffffffffffffffffffffffffffffffffffff1614611fd8576040517f08c379a000000000000000000000000000000000000000000000000000000000815260040180806020018281038252602a8152602001806133f1602a913960400191505060405180910390fd5b6003826040518082805190602001908083835b6020831061200e5780518252602082019150602081019050602083039250611feb565b6001836020036101000a038019825116818451168082178552505050505050905001915050908152602001604051809103902060020160009054906101000a900460ff16156120c5576040517f08c379a000000000000000000000000000000000000000000000000000000000815260040180806020018281038252601f8152602001807f456c6563746f72616c206e756d626572206d75737420626520756e697175650081525060200191505060405180910390fd5b6040518060600160405280838152602001828152602001600115158152506003836040518082805190602001908083835b6020831061211957805182526020820191506020810190506020830392506120f6565b6001836020036101000a03801982511681845116808217855250505050505090500191505090815260200160405180910390206000820151816000019080519060200190612168929190613286565b506020820151816001019080519060200190612185929190613286565b5060408201518160020160006101000a81548160ff0219169083151502179055509050505050565b3373ffffffffffffffffffffffffffffffffffffffff166000809054906101000a900473ffffffffffffffffffffffffffffffffffffffff1673ffffffffffffffffffffffffffffffffffffffff1614612252576040517f08c379a000000000000000000000000000000000000000000000000000000000815260040180806020018281038252602a8152602001806133f1602a913960400191505060405180910390fd5b6002816040518082805190602001908083835b602083106122885780518252602082019150602081019050602083039250612265565b6001836020036101000a038019825116818451168082178552505050505050905001915050908152602001604051809103902060010160009054906101000a900460ff161561233f576040517f08c379a000000000000000000000000000000000000000000000000000000000815260040180806020018281038252601c8152602001807f5468652063697479206e616d65206d75737420626520756e697175650000000081525060200191505060405180910390fd5b6040518060400160405280828152602001600115158152506002826040518082805190602001908083835b6020831061238d578051825260208201915060208101905060208303925061236a565b6001836020036101000a038019825116818451168082178552505050505050905001915050908152602001604051809103902060008201518160000190805190602001906123dc929190613286565b5060208201518160010160006101000a81548160ff02191690831515021790555090505050565b6060806060806060806060612416613361565b6001896040518082805190602001908083835b6020831061244c5780518252602082019150602081019050602083039250612429565b6001836020036101000a038019825116818451168082178552505050505050905001915050908152602001604051809103902060405180610100016040529081600082018054600181600116156101000203166002900480601f0160208091040260200160405190810160405280929190818152602001828054600181600116156101000203166002900480156125245780601f106124f957610100808354040283529160200191612524565b820191906000526020600020905b81548152906001019060200180831161250757829003601f168201915b50505050508152602001600182018054600181600116156101000203166002900480601f0160208091040260200160405190810160405280929190818152602001828054600181600116156101000203166002900480156125c65780601f1061259b576101008083540402835291602001916125c6565b820191906000526020600020905b8154815290600101906020018083116125a957829003601f168201915b50505050508152602001600282018054600181600116156101000203166002900480601f0160208091040260200160405190810160405280929190818152602001828054600181600116156101000203166002900480156126685780601f1061263d57610100808354040283529160200191612668565b820191906000526020600020905b81548152906001019060200180831161264b57829003601f168201915b50505050508152602001600382018054600181600116156101000203166002900480601f01602080910402602001604051908101604052809291908181526020018280546001816001161561010002031660029004801561270a5780601f106126df5761010080835404028352916020019161270a565b820191906000526020600020905b8154815290600101906020018083116126ed57829003601f168201915b50505050508152602001600482018054600181600116156101000203166002900480601f0160208091040260200160405190810160405280929190818152602001828054600181600116156101000203166002900480156127ac5780601f10612781576101008083540402835291602001916127ac565b820191906000526020600020905b81548152906001019060200180831161278f57829003601f168201915b50505050508152602001600582018054600181600116156101000203166002900480601f01602080910402602001604051908101604052809291908181526020018280546001816001161561010002031660029004801561284e5780601f106128235761010080835404028352916020019161284e565b820191906000526020600020905b81548152906001019060200180831161283157829003601f168201915b50505050508152602001600682018054600181600116156101000203166002900480601f0160208091040260200160405190810160405280929190818152602001828054600181600116156101000203166002900480156128f05780601f106128c5576101008083540402835291602001916128f0565b820191906000526020600020905b8154815290600101906020018083116128d357829003601f168201915b505050505081526020016007820160009054906101000a900460ff16151515158152505090508060e0015161298d576040517f08c379a00000000000000000000000000000000000000000000000000000000081526004018080602001828103825260138152602001807f43616e646964617465206e6f7420666f756e640000000000000000000000000081525060200191505060405180910390fd5b806000015181602001518260400151836060015184608001518560a001518660c00151869650859550849450839350829250819150809050975097509750975097509750975050919395979092949650565b3373ffffffffffffffffffffffffffffffffffffffff166000809054906101000a900473ffffffffffffffffffffffffffffffffffffffff1673ffffffffffffffffffffffffffffffffffffffff1614612a84576040517f08c379a000000000000000000000000000000000000000000000000000000000815260040180806020018281038252602a8152602001806133f1602a913960400191505060405180910390fd5b6001816040518082805190602001908083835b60208310612aba5780518252602082019150602081019050602083039250612a97565b6001836020036101000a038019825116818451168082178552505050505050905001915050908152602001604051809103902060070160009054906101000a900460ff1615612b54576040517f08c379a00000000000000000000000000000000000000000000000000000000081526004018080602001828103825260238152602001806133ce6023913960400191505060405180910390fd5b612b5d856131a8565b50612b67846131bd565b50612b71836131d2565b50612b7b82613210565b50604051806101000160405280888152602001878152602001868152602001858152602001848152602001838152602001828152602001600115158152506001826040518082805190602001908083835b60208310612bef5780518252602082019150602081019050602083039250612bcc565b6001836020036101000a03801982511681845116808217855250505050505090500191505090815260200160405180910390206000820151816000019080519060200190612c3e929190613286565b506020820151816001019080519060200190612c5b929190613286565b506040820151816002019080519060200190612c78929190613286565b506060820151816003019080519060200190612c95929190613286565b506080820151816004019080519060200190612cb2929190613286565b5060a0820151816005019080519060200190612ccf929190613286565b5060c0820151816006019080519060200190612cec929190613286565b5060e08201518160070160006101000a81548160ff02191690831515021790555090505050505050505050565b3373ffffffffffffffffffffffffffffffffffffffff166000809054906101000a900473ffffffffffffffffffffffffffffffffffffffff1673ffffffffffffffffffffffffffffffffffffffff1614612dbe576040517f08c379a000000000000000000000000000000000000000000000000000000000815260040180806020018281038252602a8152602001806133f1602a913960400191505060405180910390fd5b6004816040518082805190602001908083835b60208310612df45780518252602082019150602081019050602083039250612dd1565b6001836020036101000a038019825116818451168082178552505050505050905001915050908152602001604051809103902060010160009054906101000a900460ff1615612e8e576040517f08c379a000000000000000000000000000000000000000000000000000000000815260040180806020018281038252602281526020018061341b6022913960400191505060405180910390fd5b6040518060400160405280828152602001600115158152506004826040518082805190602001908083835b60208310612edc5780518252602082019150602081019050602083039250612eb9565b6001836020036101000a03801982511681845116808217855250505050505090500191505090815260200160405180910390206000820151816000019080519060200190612f2b929190613286565b5060208201518160010160006101000a81548160ff02191690831515021790555090505050565b3373ffffffffffffffffffffffffffffffffffffffff166000809054906101000a900473ffffffffffffffffffffffffffffffffffffffff1673ffffffffffffffffffffffffffffffffffffffff1614612ff7576040517f08c379a000000000000000000000000000000000000000000000000000000000815260040180806020018281038252602a8152602001806133f1602a913960400191505060405180910390fd5b6005816040518082805190602001908083835b6020831061302d578051825260208201915060208101905060208303925061300a565b6001836020036101000a038019825116818451168082178552505050505050905001915050908152602001604051809103902060010160009054906101000a900460ff16156130e4576040517f08c379a000000000000000000000000000000000000000000000000000000000815260040180806020018281038252601b8152602001807f54686520706f736974696f6e206d75737420626520756e69717565000000000081525060200191505060405180910390fd5b6040518060400160405280828152602001600115158152506005826040518082805190602001908083835b60208310613132578051825260208201915060208101905060208303925061310f565b6001836020036101000a03801982511681845116808217855250505050505090500191505090815260200160405180910390206000820151816000019080519060200190613181929190613286565b5060208201518160010160006101000a81548160ff02191690831515021790555090505050565b60006131b382611bb1565b5060019050919050565b60006131c882611529565b5060019050919050565b60006040518060000190506040518091039020828051906020012014156131fc576001905061320b565b61320582611d72565b50600190505b919050565b600060405180600001905060405180910390208280519060200120141561323a5760019050613249565b61324382611368565b50600190505b919050565b6040518060400160405280606081526020016000151581525090565b6040518060400160405280606081526020016000151581525090565b828054600181600116156101000203166002900490600052602060002090601f016020900481019282601f106132c757805160ff19168380011785556132f5565b828001600101855582156132f5579182015b828111156132f45782518255916020019190600101906132d9565b5b50905061330291906133a8565b5090565b604051806060016040528060608152602001606081526020016000151581525090565b6040518060400160405280606081526020016000151581525090565b6040518060400160405280606081526020016000151581525090565b604051806101000160405280606081526020016060815260200160608152602001606081526020016060815260200160608152602001606081526020016000151581525090565b6133ca91905b808211156133c65760008160009055506001016133ae565b5090565b9056fe54686520656c6563746f72616c206e756d626572206d75737420626520756e697175654f6e6c7920746865206f776e65722063616e20757064617465207468617420696e666f726d6174696f6e54686520706f6c69746963616c207061727479206d75737420626520756e69717565a265627a7a723158206342bae7cf10e6be83fb67eba85c7a4f1b4f18c1d33f495d637d42881852ffac64736f6c63430005100032",
  "source": "// SPDX-License-Identifier: MIT\npragma solidity >=0.4.22 <0.9.0;\n\ncontract Elections {\n\n  address owner;\n\n  struct Candidate {\n    string fullName;\n    string birthDate;\n    string politicalParty;\n    string position;\n    string state;\n    string city;\n    string electoralNumber;\n    bool initialized;\n  }\n\n  struct City {\n    string name;\n    bool initialized;\n  }\n\n  struct ElectoralTitleData {\n    string electoralNumber;\n    string fullName;\n    bool initialized;\n  }\n\n  struct PoliticalParty {\n    string name;\n    bool initialized;\n  }\n\n  struct Position {\n    string name;\n    bool initialized;\n  }\n\n  struct State {\n    string name;\n    bool initialized;\n  }\n\n  mapping(string => Candidate) candidates;\n  mapping(string => City) cities;\n  mapping(string => ElectoralTitleData) electoralTitles;\n  mapping(string => PoliticalParty) politicalParties;\n  mapping(string => Position) positions;\n  mapping(string => State) states;\n\n\n  constructor() public {\n    owner = msg.sender;\n  }\n\n  modifier onlyOwner {\n    require(owner == msg.sender, \"Only the owner can update that information\");\n    _;\n  }\n\n  // Candidate methods\n\n  function addCandidate(\n    string memory fullName,\n    string memory birthDate,\n    string memory politicalParty,\n    string memory position,\n    string memory state,\n    string memory city,\n    string memory electoralNumber\n  ) public onlyOwner\n  {\n\n    require(!candidates[electoralNumber].initialized, \"The electoral number must be unique\");\n\n    // Validations\n    getPoliticalPartyValidation(politicalParty);\n    getPositionValidation(position);\n    getStateValidation(state);\n    getCityValidation(city);\n\n    candidates[electoralNumber] = Candidate(\n      fullName,\n      birthDate,\n      politicalParty,\n      position,\n      state,\n      city,\n      electoralNumber,\n      true\n    );\n  }\n\n  function getCandidate(string memory number) \n    public\n    view\n    returns (\n      string memory fullName,\n      string memory birthDate,\n      string memory politicalParty,\n      string memory position,\n      string memory state,\n      string memory city,\n      string memory electoralNumber\n    )\n  {\n    Candidate memory candidate = candidates[number];\n    require(candidate.initialized, \"Candidate not found\");\n\n    return(\n      candidate.fullName,\n      candidate.birthDate,\n      candidate.politicalParty,\n      candidate.position,\n      candidate.state,\n      candidate.city,\n      candidate.electoralNumber\n    );\n    \n  }\n\n  // City methods\n\n  function addCity(\n    string memory cityName\n  ) public onlyOwner {\n\n    require(!cities[cityName].initialized, \"The city name must be unique\");\n\n    cities[cityName] = City(cityName, true);\n  }\n\n  function getCity(string memory cityName) \n    public\n    view\n    returns (\n      string memory name\n    )\n  {\n    City memory city = cities[cityName];\n    require(city.initialized, \"City not found\");\n\n    return(\n      city.name\n    );\n\n  }\n\n  // Electoral Title methods\n\n  function addElectoralTitle(\n    string memory electoralNumber,\n    string memory fullName\n  ) public onlyOwner {\n    require(!electoralTitles[electoralNumber].initialized, \"Electoral number must be unique\");\n    electoralTitles[electoralNumber] = ElectoralTitleData(electoralNumber, fullName, true);\n  }\n\n  function getElectoralTitle(string memory number) \n    public\n    view\n    returns (\n      string memory electoralNumber,\n      string memory fullName\n    )\n  {\n    ElectoralTitleData memory electoralTitle = electoralTitles[number];\n    require(electoralTitle.initialized, \"Electoral title not found\");\n\n    return(\n      electoralTitle.electoralNumber,\n      electoralTitle.fullName\n    );\n  }\n\n  // Political Party methods\n\n  function addPoliticalParty(\n    string memory name\n  ) public onlyOwner {\n  \n    require(!politicalParties[name].initialized, \"The political party must be unique\");\n    politicalParties[name] = PoliticalParty(name, true);\n  }\n\n  function getPoliticalParty(string memory politicalPartyName) \n    public\n    view\n    returns (\n      string memory name\n    )\n  {\n    PoliticalParty memory politicalParty = politicalParties[politicalPartyName];\n    require(politicalParty.initialized, \"Political party not found\");\n\n    return(\n      politicalParty.name\n    );\n  }\n\n  // Position methods\n\n  function addPosition(\n    string memory position\n  ) public onlyOwner {\n\n    require(!positions[position].initialized, \"The position must be unique\");\n    positions[position] = Position(position, true);\n  }\n\n  function getPosition(string memory positionName) \n    public\n    view\n    returns (\n      string memory name\n    )\n  {\n    Position memory position = positions[positionName];\n    require(position.initialized, \"Position not found\");\n\n    return(\n      position.name\n    );\n  }\n\n  // State methods\n\n  function addState(\n    string memory stateName\n  ) public onlyOwner {\n\n    require(!states[stateName].initialized, \"The state name must be unique\");\n    states[stateName] = State(stateName, true);\n  }\n\n  function getState(string memory stateName) \n    public\n    view\n    returns (\n      string memory name\n    )\n  {\n    State memory state = states[stateName];\n    require(state.initialized, \"State not found\");\n\n    return(\n      state.name\n    );\n  }\n\n  /***************************\n  * Helper validation methods*\n  /***************************/\n  function getPoliticalPartyValidation(\n  string memory name) private returns (bool) {\n    getPoliticalParty(name);\n    return true;\n  }\n\n  function getPositionValidation(string memory name) private returns (bool) {\n    getPosition(name);\n    return true;\n  }\n\n  function getStateValidation(string memory name) private returns (bool) {\n    if (keccak256(bytes(name)) == keccak256('')) { return true; }\n    getState(name);\n    return true;\n  }\n\n  function getCityValidation(string memory name) private returns (bool) {\n    if (keccak256(bytes(name)) == keccak256('')) { return true; }\n    getCity(name);\n    return true;\n  }\n}\n",
  "sourcePath": "/var/www/backend/contracts/Elections.sol",
  "compiler": {
    "name": "solc",
    "version": "0.5.16+commit.9c3226ce.Emscripten.clang"
  },
  "schemaVersion": "3.4.3",
  "updatedAt": "2021-09-19T22:29:26.571Z",
  "networkType": "ethereum",
  "devdoc": {
    "methods": {}
  },
  "userdoc": {
    "methods": {}
  }
}